:10000000AFC00000C9C00000C7C00000C5C00000EC
:10001000C3C00000C1C00000BFC00000BDC00000E0
:10002000BBC00000B9C0000085C40000B5C000001E
:10003000B3C00000B1C00000AFC00000ADC0000000
:10004000ABC00000A9C00000A7C00000A5C0000010
:10005000A3C00000A1C000009FC000009DC0000020
:100060009BC0000099C0000097C0000095C0000030
:1000700093C0000091C000008FC000008DC0000040
:100080008BC0000089C0000087C0000085C0000050
:1000900083C0000081C000007FC000007DC0000060
:1000A0007BC0000079C0000077C0000026034C0030
:1000B00055004600410020004A006F00790073009F
:1000C0007400690063006B002000440065006D004F
:1000D0006F00000018034400650061006E002000FE
:1000E000430061006D0065007200610000000403C0
:1000F000090409022200010100C0320904000001C4
:1001000003000000092111010001223A00070581C6
:10011000030800051201100100000008EB03432052
:1001200001000102000105010904A1010901A1006A
:10013000093009310932169CFF26640036FFFF465C
:100140000100950375088102C005091901291015E0
:10015000002501750195108102750095018101C08E
:1001600011241FBECFEFDAE0DEBFCDBF11E0A0E06B
:10017000B1E0E2E1F2E102C005900D92A031B107D9
:10018000D9F711E0A0E1B1E001C01D92A232B107A0
:10019000E1F72ED00C94070933CF2BB19BB19F7D93
:1001A000922B8072982B9BB9089584B1807F84B97B
:1001B00085B18F6085B980B38C7080BB81B3836F4C
:1001C00081BB8AB1807F8AB98BB18F608BB98AB1CC
:1001D0008F738AB98BB1806C8BB984B18F7884B9F5
:1001E00085B1806785B93E98469A559A5D9885C3D2
:1001F00084B7877F84BF88E10FB6F894809360004E
:10020000109260000FBE90E080E80FB6F8948093E3
:100210006100909361000FBEC8DF80E0BEDF78947C
:1002200080E091E015D7AED5FBCF80E0B6CF80E07F
:10023000B4CF80E091E0F7D69091E2009460909383
:10024000E200882311F080E201C080E0A6CF80E0C8
:1002500091E0B4C580910E0190910F01009729F0B3
:10026000019790930F0180930E0108950F931F93B0
:10027000F90185E090E0D8018D939C9383B180953E
:1002800080FF02C09CE903C081FF02C094E6918315
:1002900082FF02C08CE903C083FF02C084E6808332
:1002A00029B1209520FF05C08381948181609483CA
:1002B000838321FF05C0838194818260948383833B
:1002C00022FF05C08381948184609483838323FF0C
:1002D00005C0838194818860948383832FB12095A6
:1002E00027FF05C08381948180619483838326FFE7
:1002F00005C08381948180629483838325FF05C038
:100300008381948180649483838324FF05C08381E7
:10031000948180689483838321FF05C083819481C5
:1003200091609483838320FF05C0838194819260D0
:100330009483838389B18095282F207C86FF05C014
:100340008381948194609483838327FF05C0838194
:10035000948198609483838323B1209524FF05C002
:100360008381948190619483838325FF05C0838179
:10037000948190629483838326FF05C08381948156
:10038000906494838383369905C0838194819068B7
:100390009483838380E01F910F9108950895292FFE
:1003A000332723303105B1F04CF42130310509F405
:1003B00039C02230310509F03AC007C02132310579
:1003C00039F12232310549F132C0E2E2F0E082EF48
:1003D00090E031C099278130910561F0823091051C
:1003E00081F0892B21F5EEEEF0E0E491F0E08EEE65
:1003F00090E021C0E4EDF0E0E491F0E084ED90E0E5
:100400001AC0ECEAF0E0E491F0E08CEA90E013C06E
:10041000E9E0F0E084E091E00EC0EAE3F0E086E29B
:1004200091E009C0E2E1F0E084E191E004C0E0E0A5
:10043000F0E080E090E0DA018D939C93CF01089585
:10044000BF92CF92DF92EF92FF920F931F93CF93C1
:10045000DF937C018B01EA01DED1B82E811133C01C
:10046000209731F028813981021B130BE20EF31E15
:10047000C12CD12C23C08091E80085FD15C080914E
:10048000E8008E778093E8007DD4209749F088813A
:1004900099818C0D9D1D9983888325E0B22E13C010
:1004A000BAD1882359F00EC0F70181917F01809362
:1004B000F10001501109FFEFCF1ADF0A01151105F4
:1004C000D1F601C0B82E8B2DDF91CF911F910F91E6
:1004D000FF90EF90DF90CF90BF9008954091200162
:1004E000509121014617570748F06115710539F4FD
:1004F0004091E8004E774093E80001C0BA01FC014A
:1005000040E033C080911901882309F442C085304E
:1005100009F441C08091E80083FD39C08091E80072
:1005200082FD2FC08091E80080FF1FC09091F300F2
:100530008091F200392F20E0A901482BCA0106C0A2
:1005400041914093F1006150710901966115710567
:1005500019F088309105A0F341E0089709F040E0D8
:100560008091E8008E778093E8006115710551F65F
:100570004111C8CF06C080911901882351F0853000
:1005800051F08091E80082FFF6CF80E0089581E08D
:10059000089582E0089583E008956115710529F4B6
:1005A0004091E8004B774093E800AC0128C080916F
:1005B00019018823B9F1853079F18091E80083FD34
:1005C0002DC08091E80082FFF2CFFA0107C0809130
:1005D000F1008193AF016150710961F0AF01909119
:1005E000F3008091F200392F20E0D901A82BCD0132
:1005F000892B69F78091E8008B778093E80061157B
:100600007105A9F68091E80080FD0AC0809119016A
:10061000882341F08530B1F783E0089581E00895A3
:1006200080E0089582E008954091200150912101D9
:100630004617570748F06115710539F44091E800F5
:100640004E774093E80001C0BA01FC0140E034C09D
:1006500080911901882309F443C0853009F442C010
:100660008091E80083FD3AC08091E80082FD30C0AF
:100670008091E80080FF20C09091F3008091F2000B
:10068000392F20E0A901482BCA0107C044914093AB
:10069000F10031966150710901966115710519F0EB
:1006A0008830910598F341E0089709F040E0809187
:1006B000E8008E778093E8006115710549F64111D5
:1006C000C7CF06C080911901882351F0853051F0C1
:1006D0008091E80082FFF6CF80E0089581E00895E0
:1006E00082E0089583E00895982F2CC09093E9004C
:1006F000981739F07091EC002091ED005091F000C6
:1007000003C0242F762F50E021FD02C09F5F1AC046
:100710003091EB003E7F3093EB003091ED003D7F58
:100720003093ED003091EB0031603093EB0070932B
:10073000EC002093ED005093F0002091EE0027FD97
:10074000E5CF07C0973090F28F708093E90081E089
:10075000089580E008950F931F93CF93DF93062FA2
:10076000EC0110E02FC09881911103C01F5F259606
:1007700029C02C81E981FA817B81892F8F70873094
:1007800010F080E022C0223010F056E001C052E0AC
:1007900028E030E040E003C04F5F220F331F2E17E8
:1007A0003F07D0F34295407F452B692F661F662790
:1007B000661F90E4799F90011124622B95DF8111CF
:1007C000D5CFDFCF1013CFCF81E0DF91CF911F9135
:1007D0000F91089580911A0187FD05C08091E8006E
:1007E00080FF0EC012C08091E80082FD05C080919C
:1007F00019018111F8CF08958091E8008B7708C026
:10080000809119018111EACF08958091E8008E77D7
:100810008093E80008958091E4009091E50045E61A
:100820002091EC0020FD1FC023C02091190122233C
:1008300091F0253091F02091EB0025FD10C0209122
:10084000E4003091E5002817390751F34150C90100
:1008500039F784E0089582E0089583E0089581E007
:10086000089580E008952091E80020FFDECFF9CFC1
:100870002091E80022FFD9CFF4CF0F931F93CF939D
:10088000DF934BD052D0C8EDD0E088818F7788833A
:1008900088818068888388818F7D888319BC1092C5
:1008A000190110921501109217011092160100EE15
:1008B00010E0F80180818B7F80838881816088834C
:1008C00042E060E080E010DFE1EEF0E080818E7FCA
:1008D0008083E2EEF0E080818160808380818860A7
:1008E0008083F80180818E7F808388818061888306
:1008F000DF91CF911F910F910895E8EDF0E0808195
:100900008F7E8083E7EDF0E080818160808384E0EA
:1009100082BF81E080931801B0CFE8EDF0E08081E4
:100920008E7F80831092E20008951092DA00109278
:10093000E10008951F920F920FB60F9211242F938A
:100940003F934F935F936F937F938F939F93AF9357
:10095000BF93EF93FF938091E10082FF0AC08091E3
:10096000E20082FF06C08091E1008B7F8093E1006E
:1009700071DC8091DA0080FF1DC08091D80080FF7B
:1009800019C08091DA008E7F8093DA008091D900BF
:1009900080FF0CC080E189BD82E189BD09B400FE01
:1009A000FDCF81E08093190140DC04C019BC109296
:1009B00019013DDC8091E10080FF18C08091E200C8
:1009C00080FF14C08091E2008E7F8093E2008091CE
:1009D000E20080618093E2008091D8008062809381
:1009E000D80019BC85E080931901CBD18091E1003A
:1009F00084FF2FC08091E20084FF2BC080E189BD7D
:100A000082E189BD09B400FEFDCF8091D8008F7DC1
:100A10008093D8008091E1008F7E8093E1008091E7
:100A2000E2008F7E8093E2008091E20081608093FB
:100A3000E20080911501882311F084E007C08091C5
:100A4000E30087FF02C083E001C081E080931901C9
:100A500098D18091E10083FF22C08091E20083FF62
:100A60001EC08091E100877F8093E10082E0809347
:100A70001901109215018091E1008E7F8093E100B1
:100A80008091E2008E7F8093E2008091E20080619D
:100A90008093E20042E060E080E026DE72D1FF91C8
:100AA000EF91BF91AF919F918F917F916F915F91E6
:100AB0004F913F912F910F900FBE0F901F9018955F
:100AC0001F93CF93DF93CDB7DEB7AC970FB6F894F3
:100AD000DEBF0FBECDBFEAE1F1E08091F10081936E
:100AE00021E0E232F207C9F7B2DB8091E80083FF30
:100AF00030C180911A0190911B01953009F487C093
:100B000038F49130B1F170F0933009F022C131C066
:100B1000983009F4F3C0993009F4FFC0963009F019
:100B200018C19BC0803821F0823809F012C108C07A
:100B30008091160190911701992389F082600FC06E
:100B400080911E0190911F018F7099278093E90079
:100B50008091EB0085FB882780F91092E900909145
:100B6000E800977F9093E8008093F1001092F100E5
:100B7000D0C0882319F0823009F0EBC08F7121F0CA
:100B8000823009F0E6C00BC080911C01813009F071
:100B9000E0C0933009F080E0809317012FC080916E
:100BA0001C0181112BC080911E0190911F018F703B
:100BB0009927009709F4CDC08093E9002091EB00BC
:100BC00020FF1CC020911B01233021F48091EB00F9
:100BD000806212C09091EB0090619093EB0021E055
:100BE00030E001C0220F8A95EAF72093EA001092C4
:100BF000EA008091EB0088608093EB001092E9009E
:100C00008091E800877F8093E800E4DDA2C0811135
:100C1000A0C080911C0190911D018F779927182FFA
:100C20009091E3009078982B9093E3008091E800F6
:100C3000877F8093E800CEDD8091E80080FFFCCFC5
:100C40008091E30080688093E300112311F083E03A
:100C500001C082E0809319017CC08058823008F086
:100C600078C080911C0190911D018C3D23E092077A
:100C700071F583E08A838AE289834FB7F894DE01B5
:100C8000139620E03EE051E2E32FF0E0509357004E
:100C9000E49120FF03C0E295EF703F5FEF708E2F6D
:100CA00090E0EA3010F0C79601C0C0968D939D93F6
:100CB0002F5F243149F74FBF8091E800877F8093F1
:100CC000E8006AE270E0CE01019608DC11C0AE01D6
:100CD000455D5F4F60911E0162DB0097D1F120916D
:100CE000E800277F2093E800BC018BA59CA59CDC35
:100CF0008091E8008B778093E8002BC0803849F51D
:100D00008091E800877F8093E800809115018093AF
:100D1000F1008091E8008E7776CF81111AC0909112
:100D20001C019230B0F48091E800877F8093E80046
:100D3000909315014FDD80911501811104C08091C0
:100D4000E30087FF02C084E001C081E080931901C5
:100D500070DA8091E80083FF0AC08091E800877F05
:100D60008093E8008091EB0080628093EB00AC966A
:100D70000FB6F894DEBF0FBECDBFDF91CF911F91AC
:100D800008950895CF93809119018823A9F0809147
:100D9000E9008F709091EC0090FF02C090E801C0D4
:100DA00090E0C92FC82B1092E9008091E80083FDE4
:100DB00087DECF70C093E900CF9108956F927F9244
:100DC0008F929F92AF92BF92CF92DF92EF92FF925B
:100DD0000F931F93CF93DF9300D01F92CDB7DEB751
:100DE0007C01ADB6BEB68091E80083FF05C1F70176
:100DF000808190E020911E0130911F012817390752
:100E000009F0FAC080911B01833009F49CC030F4D2
:100E1000813071F0823009F0EFC0D2C08A3009F41D
:100E2000B7C08B3009F4A0C0893009F0E5C04BC0D1
:100E300080911A01813A09F0DFC08DB69EB61A8200
:100E4000198280911C0110911D018B83F70140854F
:100E50008DB79EB7841B91090FB6F8949EBF0FBE45
:100E60008DBFCDB6DEB6EFEFCE1ADE0A360150E00A
:100E700060E070E0C601C4D1412F41508E010F5F88
:100E80001F4F9601BE016D5F7F4FC701EFD9F7017C
:100E9000268137812115310529F0408550E0B601C2
:100EA000C901A5D11092E9008091E800877F809365
:100EB000E80069817A81C30111DB8091E8008B77BA
:100EC0008093E80038C080911A01813209F094C003
:100ED0008DB69EB6009120011091210170901C01E9
:100EE00060901D018DB79EB7801B910B0FB6F894D3
:100EF0009EBF0FBE8DBFCDB6DEB6EFEFCE1ADE0AB7
:100F00008091E800877F8093E800B801C60145DB47
:100F10008091E8008E778093E80021E0711001C095
:100F200020E030E0021B130B2C0D3D1D462D4150DF
:100F3000672DC70133DA882D992D0FB6F8949EBF1F
:100F40000FBE8DBF59C080911A01813A09F054C07B
:100F50008091E800877F8093E8008091E80080FF1F
:100F6000FCCFF701818540C080911A01813209F0E0
:100F700043C08091E800877F8093E8002BDC90914C
:100F80001C0181E0911101C080E0F701818734C02C
:100F900080911A01813281F58091E800877F8093EA
:100FA000E80018DC80911C0190911D01882736E033
:100FB000969587953A95E1F7F701958784871CC048
:100FC00080911A01813AC1F48091E800877F809373
:100FD000E8008091E80080FFFCCFF70184859585CB
:100FE00096958795969587958093F1008091E80076
:100FF0008E778093E800EEDB0FB6F894BEBE0FBE8E
:10100000ADBE0F900F900F90DF91CF911F910F9178
:10101000FF90EF90DF90CF90BF90AF909F908F9018
:101020007F906F9008959C01275F3F4FF90127E063
:10103000DF011D922A95E9F721E0FC01218724EFC9
:1010400031E03587248723E0248361E0019683CB58
:101050004F925F926F927F928F929F92AF92BF92C8
:10106000CF92DF92EF92FF920F931F93CF93DF9374
:1010700000D01F92CDB7DEB77C01ADB6BEB6809171
:101080001901843009F08DC08091E4009091E50051
:10109000F701228533852817390709F482C0818139
:1010A0008F708093E9008091E80085FF7AC06DB66B
:1010B0007EB640858DB79EB7841B91090FB6F89414
:1010C0009EBF0FBE8DBFCDB6DEB6EFEFCE1ADE0AE5
:1010D0001B821A821982460150E060E070E0C6016E
:1010E0008FD08E010F5F1F4F960140E0BE016D5FF4
:1010F0007F4FC701BBD8582EF70184859585892B72
:1011000031F001E010E086859785892B11F000E031
:1011100010E0F701C680D780C114D10489F049815D
:101120005A81B601C40156D044244394009709F46F
:10113000412CF701408550E0B401C60158D001C0F0
:10114000412C89819A81892BF1F0511004C0411002
:1011500002C000FF18C0F7018485958597878687B0
:1011600081818F708093E9008B8181118093F100E0
:1011700069817A8140E050E0C40162D98091E80041
:101180008E778093E8008091E4009091E500F7016C
:1011900093878287862D972D0FB6F8949EBF0FBE3A
:1011A0008DBF0FB6F894BEBE0FBEADBE0F900F90B0
:1011B0000F90DF91CF911F910F91FF90EF90DF90F3
:1011C000CF90BF90AF909F908F907F906F905F90E7
:1011D0004F900895FB01DC0104C08D9101908019AE
:1011E00021F441505040C8F7881B990B0895FB012A
:1011F000DC0102C001900D9241505040D8F7089593
:10120000DC0101C06D9341505040E0F70895F8941F
:02121000FFCF0E
:10121200008108000001100105000000000000002C
:00000001FF
