:10000000B2C00000CCC00000CAC00000C8C00000E0
:10001000C6C00000C4C00000C2C00000C0C00000D4
:10002000BEC00000BCC00000ACC40000B8C00000EE
:10003000B6C00000B4C00000B2C00000B0C00000F4
:10004000AEC00000ACC00000AAC00000A8C0000004
:10005000A6C00000A4C00000A2C00000A0C0000014
:100060009EC000009CC000009AC0000098C0000024
:1000700096C0000094C0000092C0000090C0000034
:100080008EC000008CC000008AC0000088C0000044
:1000900086C0000084C0000082C0000080C0000054
:1000A0007EC000007CC000007AC0000026034C0027
:1000B00055004600410020004B00650079006200B9
:1000C0006F006100720064002000440065006D0054
:1000D0006F00000018034400650061006E002000FE
:1000E000430061006D0065007200610000000403C0
:1000F000090409022200010100C0320904000001C4
:1001000003010100092111010001223F00070581BF
:10011000030800051201100100000008EB03422053
:1001200001000102000105010906A101050719E00E
:1001300029E71500250175019508810295017508CB
:10014000810105081901290595057501910295019F
:1001500075039101150025FF0507190029FF950674
:1001600075088100C00011241FBECFEFDAE0DEBFAA
:10017000CDBF11E0A0E0B1E0E0E6F2E102C0059001
:100180000D92A031B107D9F711E0A0E1B1E001C0B3
:100190001D92A532B107E1F72ED00C942E0930CF75
:1001A0002BB19BB19F7D922B8072982B9BB90895A8
:1001B00084B1807F84B985B18F6085B980B38C703C
:1001C00080BB81B3836F81BB8AB1807F8AB98BB1D9
:1001D0008F608BB98AB18F738AB98BB1806C8BB900
:1001E00084B18F7884B985B1806785B93E98469A85
:1001F000559A5D98A9C384B7877F84BF88E10FB6FD
:10020000F89480936000109260000FBE90E080E848
:100210000FB6F89480936100909361000FBEC8DF21
:1002200080E0BEDF789480E091E039D7D2D5FBCF73
:1002300080E0B6CF80E0B4CF80E091E01BD7909112
:10024000E20094609093E200882311F080E201C004
:1002500080E0A6CF80E091E0D8C580910E0190911A
:100260000F01009729F0019790930F0180930E01E1
:1002700008950F931F9388E090E0F80191838083A5
:1002800093B1909590FF02C082E503C091FF05C035
:1002900081E5F901828381E001C080E092FF05C021
:1002A000F901E80FF11D90E506C093FF06C0F901C2
:1002B000E80FF11D9FE492838F5F99B1909590FFB5
:1002C00006C0F901E80FF11D4EE142838F5F91FFF7
:1002D00006C0F901E80FF11D42E242838F5F92FFF1
:1002E00006C0F901E80FF11D48E242838F5F93FFDA
:1002F00006C0F901E80FF11D99E292838F5F9FB16B
:10030000909597FF06C0F901E80FF11D40EE42837A
:100310008F5F96FF06C0F901E80FF11D42EE4283A0
:100320008F5F95FF06C0F901E80FF11D44E042839D
:100330008F5F94FF06C0F901E80FF11D4DE1428384
:100340008F5F91FF06C0F901E80FF11D46E142837E
:100350008F5F90FF06C0F901E80FF11D9BE19283CA
:100360008F5F99B19095492F407C96FF06C0F901A7
:10037000E80FF11D97E092838F5F47FF06C0F901F8
:10038000E80FF11D96E092838F5F93B1909594FFF3
:1003900006C0F901E80FF11D4CE042838F5F95FF25
:1003A00006C0F901E80FF11D4DE042838F5F96FF13
:1003B00006C0F901E80FF11D9EE092838F5F369928
:1003C00005C0F901E80FF11D8FE0828380E01F91E5
:1003D0000F910895F901908190FF02C080E201C061
:1003E00080E091FD80E292FD80E2DACE292F332772
:1003F00023303105B1F04CF42130310509F439C016
:100400002230310509F03AC007C02132310539F1F7
:100410002232310549F132C0E2E2F0E082EF90E0B1
:1004200031C099278130910561F08230910581F0CA
:10043000892B21F5EEEEF0E0E491F0E08EEE90E015
:1004400021C0E4EDF0E0E491F0E084ED90E01AC02A
:10045000ECEAF0E0E491F0E08CEA90E013C0E9E02F
:10046000F0E084E091E00EC0EFE3F0E086E291E09E
:1004700009C0E2E1F0E084E191E004C0E0E0F0E0F6
:1004800080E090E0DA018D939C93CF010895BF92B4
:10049000CF92DF92EF92FF920F931F93CF93DF9350
:1004A0007C018B01EA01DED1B82E811133C0209787
:1004B00031F028813981021B130BE20EF31EC12C8F
:1004C000D12C23C08091E80085FD15C08091E80003
:1004D0008E778093E8007DD4209749F088819981B8
:1004E0008C0D9D1D9983888325E0B22E13C0BAD14F
:1004F000882359F00EC0F70181917F018093F100AC
:1005000001501109FFEFCF1ADF0A01151105D1F6CD
:1005100001C0B82E8B2DDF91CF911F910F91FF90CD
:10052000EF90DF90CF90BF900895409123015091BC
:1005300024014617570748F06115710539F44091B9
:10054000E8004E774093E80001C0BA01FC0140E0AA
:1005500033C080911C01882309F442C0853009F41E
:1005600041C08091E80083FD39C08091E80082FDA0
:100570002FC08091E80080FF1FC09091F300809110
:10058000F200392F20E0A901482BCA0106C0419191
:100590004093F1006150710901966115710519F0E0
:1005A00088309105A0F341E0089709F040E0809180
:1005B000E8008E778093E8006115710551F64111CE
:1005C000C8CF06C080911C01882351F0853051F0BE
:1005D0008091E80082FFF6CF80E0089581E00895E1
:1005E00082E0089583E008956115710529F4409132
:1005F000E8004B774093E800AC0128C080911C01D3
:100600008823B9F1853079F18091E80083FD2DC010
:100610008091E80082FFF2CFFA0107C08091F100DB
:100620008193AF016150710961F0AF019091F300C6
:100630008091F200392F20E0D901A82BCD01892B20
:1006400069F78091E8008B778093E8006115710568
:10065000A9F68091E80080FD0AC080911C018823E2
:1006600041F08530B1F783E0089581E0089580E09E
:10067000089582E008954091230150912401461786
:10068000570748F06115710539F44091E8004E773D
:100690004093E80001C0BA01FC0140E034C0809101
:1006A0001C01882309F443C0853009F442C08091BD
:1006B000E80083FD3AC08091E80082FD30C080915F
:1006C000E80080FF20C09091F3008091F200392F64
:1006D00020E0A901482BCA0107C044914093F100D2
:1006E00031966150710901966115710519F08830D4
:1006F000910598F341E0089709F040E08091E80007
:100700008E778093E8006115710549F64111C7CFD6
:1007100006C080911C01882351F0853051F08091F2
:10072000E80082FFF6CF80E0089581E0089582E03E
:10073000089583E00895982F2CC09093E9009817AE
:1007400039F07091EC002091ED005091F00003C061
:10075000242F762F50E021FD02C09F5F1AC03091F8
:10076000EB003E7F3093EB003091ED003D7F309306
:10077000ED003091EB0031603093EB007093EC00B2
:100780002093ED005093F0002091EE0027FDE5CF7F
:1007900007C0973090F28F708093E90081E0089550
:1007A00080E008950F931F93CF93DF93062FEC0102
:1007B00010E02FC09881911103C01F5F259629C0BA
:1007C0002C81E981FA817B81892F8F70873010F02D
:1007D00080E022C0223010F056E001C052E028E054
:1007E00030E040E003C04F5F220F331F2E173F075A
:1007F000D0F34295407F452B692F661F6627661F01
:1008000090E4799F90011124622B95DF8111D5CF5F
:10081000DFCF1013CFCF81E0DF91CF911F910F91E8
:10082000089580911D0187FD05C08091E80080FF3B
:100830000EC012C08091E80082FD05C080911C01AD
:100840008111F8CF08958091E8008B7708C08091DE
:100850001C018111EACF08958091E8008E77809382
:10086000E80008958091E4009091E50045E620912C
:10087000EC0020FD1FC023C020911C01222391F019
:10088000253091F02091EB0025FD10C02091E4006F
:100890003091E5002817390751F34150C90139F764
:1008A00084E0089582E0089583E0089581E008954A
:1008B00080E008952091E80020FFDECFF9CF20915D
:1008C000E80022FFD9CFF4CF0F931F93CF93DF938C
:1008D0004BD052D0C8EDD0E088818F778883888153
:1008E0008068888388818F7D888319BC10921C0161
:1008F0001092180110921A011092190100EE10E0E6
:10090000F80180818B7F808388818160888342E0C9
:1009100060E080E010DFE1EEF0E080818E7F808398
:10092000E2EEF0E080818160808380818860808356
:10093000F80180818E7F8083888180618883DF9148
:10094000CF911F910F910895E8EDF0E080818F7EA7
:100950008083E7EDF0E080818160808384E082BF66
:1009600081E080931B01B0CFE8EDF0E080818E7FC5
:1009700080831092E20008951092DA001092E10054
:1009800008951F920F920FB60F9211242F933F9349
:100990004F935F936F937F938F939F93AF93BF9387
:1009A000EF93FF938091E10082FF0AC08091E20003
:1009B00082FF06C08091E1008B7F8093E1004DDCD7
:1009C0008091DA0080FF1DC08091D80080FF19C09F
:1009D0008091DA008E7F8093DA008091D90080FFC9
:1009E0000CC080E189BD82E189BD09B400FEFDCF64
:1009F00081E080931C011CDC04C019BC10921C0116
:100A000019DC8091E10080FF18C08091E20080FF36
:100A100014C08091E2008E7F8093E2008091E2001A
:100A200080618093E2008091D80080628093D8003A
:100A300019BC85E080931C01CBD18091E10084FF3B
:100A40002FC08091E20084FF2BC080E189BD82E14C
:100A500089BD09B400FEFDCF8091D8008F7D8093C1
:100A6000D8008091E1008F7E8093E1008091E200C8
:100A70008F7E8093E2008091E20081608093E200AB
:100A800080911801882311F084E007C08091E30071
:100A900087FF02C083E001C081E080931C0198D1F0
:100AA0008091E10083FF22C08091E20083FF1EC09D
:100AB0008091E100877F8093E10082E080931C01B8
:100AC000109218018091E1008E7F8093E100809167
:100AD000E2008E7F8093E2008091E200806180934B
:100AE000E20042E060E080E026DE72D1FF91EF910B
:100AF000BF91AF919F918F917F916F915F914F9136
:100B00003F912F910F900FBE0F901F9018951F933C
:100B1000CF93DF93CDB7DEB7AC970FB6F894DEBFB7
:100B20000FBECDBFEDE1F1E08091F100819321E0B6
:100B3000E532F207C9F78EDB8091E80083FF30C110
:100B400080911D0190911E01953009F487C038F401
:100B50009130B1F170F0933009F022C131C098307A
:100B600009F4F3C0993009F4FFC0963009F018C1B8
:100B70009BC0803821F0823809F012C108C08091F2
:100B8000190190911A01992389F082600FC0809118
:100B90002101909122018F7099278093E900809123
:100BA000EB0085FB882780F91092E9009091E8001E
:100BB000977F9093E8008093F1001092F100D0C0ED
:100BC000882319F0823009F0EBC08F7121F0823058
:100BD00009F0E6C00BC080911F01813009F0E0C030
:100BE000933009F080E080931A012FC080911F019B
:100BF00081112BC080912101909122018F70992742
:100C0000009709F4CDC08093E9002091EB0020FF0C
:100C10001CC020911E01233021F48091EB008062E2
:100C200012C09091EB0090619093EB0021E030E0D6
:100C300001C0220F8A95EAF72093EA001092EA0099
:100C40008091EB0088608093EB001092E900809126
:100C5000E800877F8093E800E4DDA2C08111A0C096
:100C600080911F01909120018F779927182F9091E3
:100C7000E3009078982B9093E3008091E800877FC1
:100C80008093E800CEDD8091E80080FFFCCF80916A
:100C9000E30080688093E300112311F083E001C03A
:100CA00082E080931C017CC08058823008F078C0BC
:100CB00080911F01909120018C3D23E0920771F5F6
:100CC00083E08A838AE289834FB7F894DE01139622
:100CD00020E03EE051E2E32FF0E050935700E49132
:100CE00020FF03C0E295EF703F5FEF708E2F90E022
:100CF000EA3010F0C79601C0C0968D939D932F5F88
:100D0000243149F74FBF8091E800877F8093E80046
:100D10006AE270E0CE01019608DC11C0AE01455DCB
:100D20005F4F6091210162DB0097D1F12091E800D3
:100D3000277F2093E800BC018BA59CA59CDC8091BB
:100D4000E8008B778093E8002BC0803849F58091CC
:100D5000E800877F8093E800809118018093F1007C
:100D60008091E8008E7776CF81111AC090911F0193
:100D70009230B0F48091E800877F8093E8009093F0
:100D800018014FDD80911801811104C08091E300AA
:100D900087FF02C084E001C081E080931C014CDA2F
:100DA0008091E80083FF0AC08091E800877F8093EC
:100DB000E8008091EB0080628093EB00AC960FB668
:100DC000F894DEBF0FBECDBFDF91CF911F91089584
:100DD0000895CF9380911C018823A9F08091E900A8
:100DE0008F709091EC0090FF02C090E801C090E0FD
:100DF000C92FC82B1092E9008091E80083FD87DE9F
:100E0000CF70C093E900CF9108956F927F928F9237
:100E10009F92AF92BF92CF92DF92EF92FF920F9389
:100E20001F93CF93DF9300D01F92CDB7DEB77C0125
:100E3000ADB6BEB68091E80083FF05C1F7018081A1
:100E400090E020912101309122012817390709F003
:100E5000FAC080911E01833009F49CC030F48130C7
:100E600071F0823009F0EFC0D2C08A3009F4B7C007
:100E70008B3009F4A0C0893009F0E5C04BC08091E7
:100E80001D01813A09F0DFC08DB69EB61A82198223
:100E900080911F01109120018B83F70140858DB750
:100EA0009EB7841B91090FB6F8949EBF0FBE8DBFED
:100EB000CDB6DEB6EFEFCE1ADE0A360150E060E0C6
:100EC00070E0C601C4D1412F41508E010F5F1F4F0A
:100ED0009601BE016D5F7F4FC701CBD9F701268117
:100EE00037812115310529F0408550E0B601C9014F
:100EF000A5D11092E9008091E800877F8093E800F7
:100F000069817A81C30111DB8091E8008B7780933E
:100F1000E80038C080911D01813209F094C08DB67F
:100F20009EB6009123011091240170901F016090E2
:100F300020018DB79EB7801B910B0FB6F8949EBF12
:100F40000FBE8DBFCDB6DEB6EFEFCE1ADE0A8091B2
:100F5000E800877F8093E800B801C60145DB8091F7
:100F6000E8008E778093E80021E0711001C020E056
:100F700030E0021B130B2C0D3D1D462D4150672DFB
:100F8000C70128DA882D992D0FB6F8949EBF0FBEA1
:100F90008DBF59C080911D01813A09F054C08091E4
:100FA000E800877F8093E8008091E80080FFFCCF15
:100FB000F701818540C080911D01813209F043C055
:100FC0008091E800877F8093E8002BDC90911F01DF
:100FD00081E0911101C080E0F701818734C08091E8
:100FE0001D01813281F58091E800877F8093E800C0
:100FF00018DC80911F0190912001882736E096959A
:1010000087953A95E1F7F701958784871CC0809111
:101010001D01813AC1F48091E800877F8093E80048
:101020008091E80080FFFCCFF70184859585969537
:101030008795969587958093F1008091E8008E774B
:101040008093E800EEDB0FB6F894BEBE0FBEADBED7
:101050000F900F900F90DF91CF911F910F91FF9004
:10106000EF90DF90CF90BF90AF909F908F907F9048
:101070006F9008959C01275F3F4FF90127E0DF0142
:101080001D922A95E9F721E0FC01218724EF31E048
:101090003587248723E0248361E0019683CB4F9238
:1010A0005F926F927F928F929F92AF92BF92CF92F8
:1010B000DF92EF92FF920F931F93CF93DF9300D0B5
:1010C0001F92CDB7DEB77C01ADB6BEB680911C01D4
:1010D000843009F08DC08091E4009091E500F70123
:1010E000228533852817390709F482C081818F70E2
:1010F0008093E9008091E80085FF7AC06DB67EB6E6
:1011000040858DB79EB7841B91090FB6F8949EBF9A
:101110000FBE8DBFCDB6DEB6EFEFCE1ADE0A1B8254
:101120001A821982460150E060E070E0C6018FD05B
:101130008E010F5F1F4F960140E0BE016D5F7F4F34
:10114000C70197D8582EF70184859585892B31F0F2
:1011500001E010E086859785892B11F000E010E012
:10116000F701C680D780C114D10489F049815A8122
:10117000B601C40156D044244394009709F4412C8D
:10118000F701408550E0B401C60158D001C0412CA0
:1011900089819A81892BF1F0511004C0411002C05D
:1011A00000FF18C0F7018485958597878687818120
:1011B0008F708093E9008B8181118093F1006981A8
:1011C0007A8140E050E0C40162D98091E8008E77D6
:1011D0008093E8008091E4009091E500F701938707
:1011E0008287862D972D0FB6F8949EBF0FBE8DBFB8
:1011F0000FB6F894BEBE0FBEADBE0F900F900F900D
:10120000DF91CF911F910F91FF90EF90DF90CF90E2
:10121000BF90AF909F908F907F906F905F904F9016
:101220000895FB01DC0104C08D910190801921F427
:1012300041505040C8F7881B990B0895FB01DC0111
:1012400002C001900D9241505040D8F70895DC0142
:1012500001C06D9341505040E0F70895F894FFCFDE
:1012600000810800000110010800000000000000DB
:00000001FF
